{
  "_format": "hh-sol-artifact-1",
  "contractName": "PrizeClaimContract",
  "sourceName": "contracts/PrizeClaimContract.sol",
  "abi": [
    {
      "inputs": [
        {
          "internalType": "address",
          "name": "_pointingContractAddress",
          "type": "address"
        }
      ],
      "stateMutability": "payable",
      "type": "constructor"
    },
    {
      "inputs": [],
      "name": "claimPrize",
      "outputs": [],
      "stateMutability": "nonpayable",
      "type": "function"
    },
    {
      "inputs": [],
      "name": "getContractBalance",
      "outputs": [
        {
          "internalType": "uint256",
          "name": "",
          "type": "uint256"
        }
      ],
      "stateMutability": "view",
      "type": "function"
    },
    {
      "inputs": [],
      "name": "getPoints",
      "outputs": [
        {
          "internalType": "uint256",
          "name": "",
          "type": "uint256"
        }
      ],
      "stateMutability": "view",
      "type": "function"
    },
    {
      "inputs": [],
      "name": "prize",
      "outputs": [
        {
          "internalType": "uint256",
          "name": "",
          "type": "uint256"
        }
      ],
      "stateMutability": "view",
      "type": "function"
    },
    {
      "inputs": [],
      "name": "setPrize",
      "outputs": [],
      "stateMutability": "payable",
      "type": "function"
    }
  ],
  "bytecode": "0x608060405260405161065b38038061065b833981810160405281019061002591906100d5565b806000806101000a81548173ffffffffffffffffffffffffffffffffffffffff021916908373ffffffffffffffffffffffffffffffffffffffff1602179055503460018190555050610102565b600080fd5b600073ffffffffffffffffffffffffffffffffffffffff82169050919050565b60006100a282610077565b9050919050565b6100b281610097565b81146100bd57600080fd5b50565b6000815190506100cf816100a9565b92915050565b6000602082840312156100eb576100ea610072565b5b60006100f9848285016100c0565b91505092915050565b61054a806101116000396000f3fe60806040526004361061004a5760003560e01c80636f9fb98a1461004f57806370740ac91461007a5780639f3042f414610091578063e3ac5d261461009b578063f4b7095b146100c6575b600080fd5b34801561005b57600080fd5b506100646100f1565b6040516100719190610329565b60405180910390f35b34801561008657600080fd5b5061008f6100f9565b005b610099610258565b005b3480156100a757600080fd5b506100b0610273565b6040516100bd9190610329565b60405180910390f35b3480156100d257600080fd5b506100db610279565b6040516100e89190610329565b60405180910390f35b600047905090565b60008060009054906101000a900473ffffffffffffffffffffffffffffffffffffffff1673ffffffffffffffffffffffffffffffffffffffff1663f4b7095b6040518163ffffffff1660e01b8152600401602060405180830381865afa158015610167573d6000803e3d6000fd5b505050506040513d601f19601f8201168201806040525081019061018b9190610375565b905060038110156101d1576040517f08c379a00000000000000000000000000000000000000000000000000000000081526004016101c890610425565b60405180910390fd5b60003373ffffffffffffffffffffffffffffffffffffffff166108fc6001549081150290604051600060405180830381858888f1935050505090508061024c576040517f08c379a000000000000000000000000000000000000000000000000000000000815260040161024390610491565b60405180910390fd5b60006001819055505050565b346001600082825461026a91906104e0565b92505081905550565b60015481565b60008060009054906101000a900473ffffffffffffffffffffffffffffffffffffffff1673ffffffffffffffffffffffffffffffffffffffff1663f4b7095b6040518163ffffffff1660e01b8152600401602060405180830381865afa1580156102e7573d6000803e3d6000fd5b505050506040513d601f19601f8201168201806040525081019061030b9190610375565b905090565b6000819050919050565b61032381610310565b82525050565b600060208201905061033e600083018461031a565b92915050565b600080fd5b61035281610310565b811461035d57600080fd5b50565b60008151905061036f81610349565b92915050565b60006020828403121561038b5761038a610344565b5b600061039984828501610360565b91505092915050565b600082825260208201905092915050565b7f4e6f7420656e6f75676820706f696e747320746f20636c61696d20612070726960008201527f7a652e0000000000000000000000000000000000000000000000000000000000602082015250565b600061040f6023836103a2565b915061041a826103b3565b604082019050919050565b6000602082019050818103600083015261043e81610402565b9050919050565b7f5072697a65207472616e73666572206661696c65642e00000000000000000000600082015250565b600061047b6016836103a2565b915061048682610445565b602082019050919050565b600060208201905081810360008301526104aa8161046e565b9050919050565b7f4e487b7100000000000000000000000000000000000000000000000000000000600052601160045260246000fd5b60006104eb82610310565b91506104f683610310565b925082820190508082111561050e5761050d6104b1565b5b9291505056fea26469706673582212201c33c3e1fef781e83ec285cc1915f1879c68db8759ef93cdbf6d23d7008093f864736f6c634300081c0033",
  "linkReferences": {},
  "deployedLinkReferences": {}
}